{
  "contractName": "Lottery",
  "abi": [
    {
      "constant": true,
      "inputs": [],
      "name": "better",
      "outputs": [
        {
          "name": "",
          "type": "address"
        }
      ],
      "payable": false,
      "stateMutability": "view",
      "type": "function"
    },
    {
      "constant": false,
      "inputs": [],
      "name": "bet",
      "outputs": [],
      "payable": true,
      "stateMutability": "payable",
      "type": "function"
    }
  ],
  "bytecode": "0x608060405234801561001057600080fd5b50610145806100206000396000f30060806040526004361061004c576000357c0100000000000000000000000000000000000000000000000000000000900463ffffffff16806311610c2514610051578063718c7d441461005b575b600080fd5b6100596100b2565b005b34801561006757600080fd5b506100706100f4565b604051808273ffffffffffffffffffffffffffffffffffffffff1673ffffffffffffffffffffffffffffffffffffffff16815260200191505060405180910390f35b336000806101000a81548173ffffffffffffffffffffffffffffffffffffffff021916908373ffffffffffffffffffffffffffffffffffffffff160217905550565b6000809054906101000a900473ffffffffffffffffffffffffffffffffffffffff16815600a165627a7a72305820e7f82494e0519874d73d8c23c6ac356cfc548e4a0170780f8230be794afc7c010029",
  "source": "pragma solidity ^0.4.22;\n\ncontract Lottery {\n    address public better;\n\n    modifier condition(bool _condition) {\n        require(_condition);\n        _;\n    }\n\n    function bet()\n        public\n        payable\n    {\n        better = msg.sender;\n    }\n\n}",
  "sourcePath": "/home/michal/Projects/Lottery/LotteryContract/contracts/Lottery.sol",
  "compiler": {
    "name": "solc",
    "version": "0.4.25+commit.59dbf8f1.Emscripten.clang"
  },
  "schemaVersion": "3.0.13",
  "updatedAt": "2019-09-03T21:51:07.719Z",
  "devdoc": {
    "methods": {}
  },
  "userdoc": {
    "methods": {}
  }
}