{
  "contractName": "Lottery",
  "abi": [
    {
      "constant": true,
      "inputs": [],
      "name": "creator",
      "outputs": [
        {
          "name": "",
          "type": "address"
        }
      ],
      "payable": false,
      "stateMutability": "view",
      "type": "function"
    },
    {
      "constant": true,
      "inputs": [],
      "name": "winningNumbers",
      "outputs": [
        {
          "name": "",
          "type": "string"
        }
      ],
      "payable": false,
      "stateMutability": "view",
      "type": "function"
    },
    {
      "constant": true,
      "inputs": [],
      "name": "better",
      "outputs": [
        {
          "name": "",
          "type": "address"
        }
      ],
      "payable": false,
      "stateMutability": "view",
      "type": "function"
    },
    {
      "inputs": [],
      "payable": true,
      "stateMutability": "payable",
      "type": "constructor"
    },
    {
      "constant": false,
      "inputs": [
        {
          "name": "_betNumbers",
          "type": "string"
        }
      ],
      "name": "bet",
      "outputs": [
        {
          "name": "",
          "type": "bool"
        }
      ],
      "payable": true,
      "stateMutability": "payable",
      "type": "function"
    },
    {
      "constant": false,
      "inputs": [],
      "name": "drawWinningNumbers",
      "outputs": [],
      "payable": false,
      "stateMutability": "nonpayable",
      "type": "function"
    },
    {
      "constant": false,
      "inputs": [],
      "name": "collectWinners",
      "outputs": [],
      "payable": false,
      "stateMutability": "nonpayable",
      "type": "function"
    },
    {
      "constant": false,
      "inputs": [],
      "name": "payout",
      "outputs": [],
      "payable": true,
      "stateMutability": "payable",
      "type": "function"
    },
    {
      "constant": true,
      "inputs": [],
      "name": "getWinningNumbers",
      "outputs": [
        {
          "name": "",
          "type": "string"
        }
      ],
      "payable": false,
      "stateMutability": "view",
      "type": "function"
    },
    {
      "constant": true,
      "inputs": [],
      "name": "getWinners",
      "outputs": [
        {
          "name": "",
          "type": "address[]"
        }
      ],
      "payable": false,
      "stateMutability": "view",
      "type": "function"
    }
  ],
  "bytecode": "0x6080604052336000806101000a81548173ffffffffffffffffffffffffffffffffffffffff021916908373ffffffffffffffffffffffffffffffffffffffff1602179055506001600460006101000a81548160ff0219169083600281111561006357fe5b0217905550610c1b806100776000396000f300608060405260043610610099576000357c0100000000000000000000000000000000000000000000000000000000900463ffffffff16806302d05d3f1461009e57806321e0f228146100f5578063608620aa1461018557806363bd1d4a1461019c578063718c7d44146101a657806374030531146101fd57806384350e1d146102715780639dfa5b4d14610301578063df15c37e14610318575b600080fd5b3480156100aa57600080fd5b506100b3610384565b604051808273ffffffffffffffffffffffffffffffffffffffff1673ffffffffffffffffffffffffffffffffffffffff16815260200191505060405180910390f35b34801561010157600080fd5b5061010a6103a9565b6040518080602001828103825283818151815260200191508051906020019080838360005b8381101561014a57808201518184015260208101905061012f565b50505050905090810190601f1680156101775780820380516001836020036101000a031916815260200191505b509250505060405180910390f35b34801561019157600080fd5b5061019a610447565b005b6101a4610495565b005b3480156101b257600080fd5b506101bb61051d565b604051808273ffffffffffffffffffffffffffffffffffffffff1673ffffffffffffffffffffffffffffffffffffffff16815260200191505060405180910390f35b610257600480360381019080803590602001908201803590602001908080601f0160208091040260200160405190810160405280939291908181526020018383808284378201915050505050509192919290505050610543565b604051808215151515815260200191505060405180910390f35b34801561027d57600080fd5b506102866106b3565b6040518080602001828103825283818151815260200191508051906020019080838360005b838110156102c65780820151818401526020810190506102ab565b50505050905090810190601f1680156102f35780820380516001836020036101000a031916815260200191505b509250505060405180910390f35b34801561030d57600080fd5b50610316610755565b005b34801561032457600080fd5b5061032d61094c565b6040518080602001828103825283818151815260200191508051906020019060200280838360005b83811015610370578082015181840152602081019050610355565b505050509050019250505060405180910390f35b6000809054906101000a900473ffffffffffffffffffffffffffffffffffffffff1681565b60028054600181600116156101000203166002900480601f01602080910402602001604051908101604052809291908181526020018280546001816001161561010002031660029004801561043f5780601f106104145761010080835404028352916020019161043f565b820191906000526020600020905b81548152906001019060200180831161042257829003601f168201915b505050505081565b6040805190810160405280600d81526020017f312c31312c31392c32342c34330000000000000000000000000000000000000081525060029080519060200190610492929190610ac3565b50565b67016345785d8a00003073ffffffffffffffffffffffffffffffffffffffff163111156104f7573373ffffffffffffffffffffffffffffffffffffffff1666b1a2bc2ec5000060405180602001905060006040518083038185875af192505050505b6001600460006101000a81548160ff0219169083600281111561051657fe5b0217905550565b600160009054906101000a900473ffffffffffffffffffffffffffffffffffffffff1681565b60008067016345785d8a0000341480151561055d57600080fd5b338260000160006101000a81548173ffffffffffffffffffffffffffffffffffffffff021916908373ffffffffffffffffffffffffffffffffffffffff160217905550838260010190805190602001906105b8929190610ac3565b50600582908060018154018082558091505090600182039060005260206000209060020201600090919290919091506000820160009054906101000a900473ffffffffffffffffffffffffffffffffffffffff168160000160006101000a81548173ffffffffffffffffffffffffffffffffffffffff021916908373ffffffffffffffffffffffffffffffffffffffff16021790555060018201816001019080546001816001161561010002031660029004610675929190610b43565b5050505034600354016003819055506001600460006101000a81548160ff021916908360028111156106a357fe5b0217905550600192505050919050565b606060028054600181600116156101000203166002900480601f01602080910402602001604051908101604052809291908181526020018280546001816001161561010002031660029004801561074b5780601f106107205761010080835404028352916020019161074b565b820191906000526020600020905b81548152906001019060200180831161072e57829003601f168201915b5050505050905090565b60008090505b6005805490508110156109495761089060058281548110151561077a57fe5b90600052602060002090600202016040805190810160405290816000820160009054906101000a900473ffffffffffffffffffffffffffffffffffffffff1673ffffffffffffffffffffffffffffffffffffffff1673ffffffffffffffffffffffffffffffffffffffff168152602001600182018054600181600116156101000203166002900480601f0160208091040260200160405190810160405280929190818152602001828054600181600116156101000203166002900480156108825780601f1061085757610100808354040283529160200191610882565b820191906000526020600020905b81548152906001019060200180831161086557829003601f168201915b5050505050815250506109da565b1561093c5760066005828154811015156108a657fe5b906000526020600020906002020160000160009054906101000a900473ffffffffffffffffffffffffffffffffffffffff1690806001815401808255809150509060018203906000526020600020016000909192909190916101000a81548173ffffffffffffffffffffffffffffffffffffffff021916908373ffffffffffffffffffffffffffffffffffffffff160217905550505b808060010191505061075b565b50565b606060068054806020026020016040519081016040528092919081815260200182805480156109d057602002820191906000526020600020905b8160009054906101000a900473ffffffffffffffffffffffffffffffffffffffff1673ffffffffffffffffffffffffffffffffffffffff1681526020019060010190808311610986575b5050505050905090565b600060608260200151905060026040518082805460018160011615610100020316600290048015610a425780601f10610a20576101008083540402835291820191610a42565b820191906000526020600020905b815481529060010190602001808311610a2e575b5050915050604051809103902060001916816040518082805190602001908083835b602083101515610a895780518252602082019150602081019050602083039250610a64565b6001836020036101000a03801982511681845116808217855250505050505090500191505060405180910390206000191614915050919050565b828054600181600116156101000203166002900490600052602060002090601f016020900481019282601f10610b0457805160ff1916838001178555610b32565b82800160010185558215610b32579182015b82811115610b31578251825591602001919060010190610b16565b5b509050610b3f9190610bca565b5090565b828054600181600116156101000203166002900490600052602060002090601f016020900481019282601f10610b7c5780548555610bb9565b82800160010185558215610bb957600052602060002091601f016020900482015b82811115610bb8578254825591600101919060010190610b9d565b5b509050610bc69190610bca565b5090565b610bec91905b80821115610be8576000816000905550600101610bd0565b5090565b905600a165627a7a72305820fea522c422975a42e449410218e8a4a7f530f1b4180f698e912a0d3ad1a60cc80029",
  "source": "pragma solidity ^0.4.24;\n\ncontract Lottery {\n    address public creator;\n    address public better;\n    string public winningNumbers;\n    uint256 bank;\n\n    struct Better {\n        address betterAddress;\n        string bettedNumbers;\n    }\n\n    enum State { Initialized, Ongoing, Finished }\n    State state;\n\n    Better[] betters;\n    address[] winners;\n\n    function Lottery()\n        public\n        payable\n    {\n        creator = msg.sender;\n        state = State.Ongoing;\n    }\n\n    modifier condition(bool _condition) {\n        require(_condition);\n        _;\n    }\n\n    modifier isCreator() {\n        require(msg.sender == creator);\n        _;\n    }\n\n    modifier isInState(State _state) {\n        require(state == _state);\n        _;\n    }\n\n    function bet(string _betNumbers)\n        public\n        condition(msg.value == (0.1 ether))\n        payable\n        returns(bool)\n    {\n        Better storage _currentBetter;\n        _currentBetter.betterAddress = msg.sender;\n        _currentBetter.bettedNumbers = _betNumbers;\n        betters.push(_currentBetter);\n        bank = bank + msg.value;\n        state = State.Ongoing;\n        return true;\n    }\n\n    function drawWinningNumbers()\n        public\n    {\n        winningNumbers = \"1,11,19,24,43\"; // numbers need to be sorted\n    }\n\n    function isWinner(Better better)\n        internal\n        returns (bool)\n    {\n        string memory bettedNumbers = better.bettedNumbers;\n        return keccak256(bettedNumbers) == keccak256(winningNumbers);\n    }\n\n    function collectWinners()\n        public\n    {\n        for (uint i=0; i<betters.length; i++)\n        {\n            if (isWinner(betters[uint(i)]))\n            {\n                winners.push(betters[uint(i)].betterAddress);\n            }\n        }\n    }\n\n    function payout()\n        public\n        payable\n    {\n        // uint256 prize = calculatePrize();\n        // for (uint i=0; i<winners.length; i++)\n        // {\n        //     winners[uint(i)].transfer(prize);\n        // }\n        if (address(this).balance > 0.1 ether)\n        {\n            msg.sender.call.value(0.05 * 1 ether)(\"\");\n        }\n        state = State.Ongoing;\n    }\n\n    function calculatePrize()\n        internal\n        returns(uint256)\n    {\n        uint256 prizePool = bank * uint256(9) / uint256(10);\n        return prizePool / uint256(winners.length);\n    }\n\n    // function isSenderAWinner()\n    //     public\n    //     returns (bool)\n    // {\n\n    // }\n\n    function getWinningNumbers()\n        public\n        view\n        returns(string memory)\n    {\n        return winningNumbers;\n    }\n\n    function getWinners()\n        public\n        view\n        returns(address[] memory)\n    {\n        return winners;\n    }\n\n}",
  "sourcePath": "/home/michal/git/lottery-smart-contract/LotteryContract/contracts/Lottery.sol",
  "compiler": {
    "name": "solc",
    "version": "0.4.25+commit.59dbf8f1.Emscripten.clang"
  },
  "schemaVersion": "3.0.13",
  "updatedAt": "2019-09-05T14:07:10.303Z",
  "devdoc": {
    "methods": {}
  },
  "userdoc": {
    "methods": {}
  }
}