{
  "contractName": "Lottery",
  "abi": [
    {
      "constant": true,
      "inputs": [],
      "name": "better",
      "outputs": [
        {
          "name": "",
          "type": "address"
        }
      ],
      "payable": false,
      "stateMutability": "view",
      "type": "function"
    },
    {
      "constant": false,
      "inputs": [
        {
          "name": "_betNumbers",
          "type": "string"
        }
      ],
      "name": "bet",
      "outputs": [
        {
          "name": "succeeded",
          "type": "bool"
        }
      ],
      "payable": true,
      "stateMutability": "payable",
      "type": "function"
    },
    {
      "constant": false,
      "inputs": [],
      "name": "drawWinningNumbers",
      "outputs": [],
      "payable": false,
      "stateMutability": "nonpayable",
      "type": "function"
    },
    {
      "constant": true,
      "inputs": [],
      "name": "getWinningNumbers",
      "outputs": [
        {
          "name": "winningNumbers",
          "type": "string"
        }
      ],
      "payable": false,
      "stateMutability": "view",
      "type": "function"
    }
  ],
  "bytecode": "0x608060405234801561001057600080fd5b506104ed806100206000396000f300608060405260043610610062576000357c0100000000000000000000000000000000000000000000000000000000900463ffffffff168063608620aa14610067578063718c7d441461007e57806374030531146100d557806384350e1d14610149575b600080fd5b34801561007357600080fd5b5061007c6101d9565b005b34801561008a57600080fd5b50610093610227565b604051808273ffffffffffffffffffffffffffffffffffffffff1673ffffffffffffffffffffffffffffffffffffffff16815260200191505060405180910390f35b61012f600480360381019080803590602001908201803590602001908080601f016020809104026020016040519081016040528093929190818152602001838380828437820191505050505050919291929050505061024c565b604051808215151515815260200191505060405180910390f35b34801561015557600080fd5b5061015e61038d565b6040518080602001828103825283818151815260200191508051906020019080838360005b8381101561019e578082015181840152602081019050610183565b50505050905090810190601f1680156101cb5780820380516001836020036101000a031916815260200191505b509250505060405180910390f35b6040805190810160405280600d81526020017f312c32342c34332c31312c31390000000000000000000000000000000000000081525060019080519060200190610224929190610395565b50565b6000809054906101000a900473ffffffffffffffffffffffffffffffffffffffff1681565b60008067016345785d8a0000341480151561026657600080fd5b338260000160006101000a81548173ffffffffffffffffffffffffffffffffffffffff021916908373ffffffffffffffffffffffffffffffffffffffff160217905550838260010190805190602001906102c1929190610395565b50600282908060018154018082558091505090600182039060005260206000209060020201600090919290919091506000820160009054906101000a900473ffffffffffffffffffffffffffffffffffffffff168160000160006101000a81548173ffffffffffffffffffffffffffffffffffffffff021916908373ffffffffffffffffffffffffffffffffffffffff1602179055506001820181600101908054600181600116156101000203166002900461037e929190610415565b50505050600192505050919050565b606080905090565b828054600181600116156101000203166002900490600052602060002090601f016020900481019282601f106103d657805160ff1916838001178555610404565b82800160010185558215610404579182015b828111156104035782518255916020019190600101906103e8565b5b509050610411919061049c565b5090565b828054600181600116156101000203166002900490600052602060002090601f016020900481019282601f1061044e578054855561048b565b8280016001018555821561048b57600052602060002091601f016020900482015b8281111561048a57825482559160010191906001019061046f565b5b509050610498919061049c565b5090565b6104be91905b808211156104ba5760008160009055506001016104a2565b5090565b905600a165627a7a72305820f522b2b44c28ec39208d866418b0939bf842061ed0d5dbf8256afdd96777009e0029",
  "source": "pragma solidity ^0.4.22;\n\ncontract Lottery {\n    address public better;\n    string winningNumbers;\n\n    struct Better {\n        address betterAddress;\n        string bettedNumbers;\n    }\n\n    Better[] betters;\n    address[] winners;\n\n    modifier condition(bool _condition) {\n        require(_condition);\n        _;\n    }\n\n    function bet(string _betNumbers)\n        public\n        condition(msg.value == (0.1 ether))\n        payable\n        returns(bool succeeded)\n    {\n        Better storage _currentBetter;\n        _currentBetter.betterAddress = msg.sender;\n        _currentBetter.bettedNumbers = _betNumbers;\n        betters.push(_currentBetter);\n        return true;\n    }\n\n    function drawWinningNumbers()\n        public\n    {\n        winningNumbers = \"1,24,43,11,19\";\n    }\n\n    function getWinningNumbers()\n        public\n        view\n        returns(string winningNumbers)\n    {\n        return winningNumbers;\n    }\n\n}",
  "sourcePath": "/home/michal/Projects/lottery-smart-contract/LotteryContract/contracts/Lottery.sol",
  "compiler": {
    "name": "solc",
    "version": "0.4.25+commit.59dbf8f1.Emscripten.clang"
  },
  "schemaVersion": "3.0.13",
  "updatedAt": "2019-09-04T20:41:17.557Z",
  "devdoc": {
    "methods": {}
  },
  "userdoc": {
    "methods": {}
  }
}