{
  "contractName": "Lottery",
  "abi": [
    {
      "constant": true,
      "inputs": [],
      "name": "better",
      "outputs": [
        {
          "name": "",
          "type": "address"
        }
      ],
      "payable": false,
      "stateMutability": "view",
      "type": "function"
    },
    {
      "inputs": [],
      "payable": false,
      "stateMutability": "nonpayable",
      "type": "constructor"
    },
    {
      "anonymous": false,
      "inputs": [
        {
          "indexed": false,
          "name": "description",
          "type": "string"
        }
      ],
      "name": "newOraclizeQuery",
      "type": "event"
    },
    {
      "anonymous": false,
      "inputs": [
        {
          "indexed": false,
          "name": "description",
          "type": "string"
        }
      ],
      "name": "gotOraclizeQuery",
      "type": "event"
    },
    {
      "constant": false,
      "inputs": [
        {
          "name": "_betNumbers",
          "type": "string"
        }
      ],
      "name": "bet",
      "outputs": [
        {
          "name": "succeeded",
          "type": "bool"
        }
      ],
      "payable": true,
      "stateMutability": "payable",
      "type": "function"
    },
    {
      "constant": false,
      "inputs": [],
      "name": "getWinningNumbers",
      "outputs": [],
      "payable": false,
      "stateMutability": "nonpayable",
      "type": "function"
    },
    {
      "constant": false,
      "inputs": [
        {
          "name": "myid",
          "type": "bytes32"
        },
        {
          "name": "result",
          "type": "string"
        }
      ],
      "name": "__callback",
      "outputs": [],
      "payable": false,
      "stateMutability": "nonpayable",
      "type": "function"
    },
    {
      "constant": false,
      "inputs": [
        {
          "name": "myid",
          "type": "bytes32"
        },
        {
          "name": "result",
          "type": "string"
        },
        {
          "name": "proof",
          "type": "bytes"
        }
      ],
      "name": "__callback",
      "outputs": [],
      "payable": false,
      "stateMutability": "nonpayable",
      "type": "function"
    }
  ],
  "bytecode": "0x608060405234801561001057600080fd5b50736f485c8bf6fc43ea212e93bbf8ce046c7f1cb4756000806101000a81548173ffffffffffffffffffffffffffffffffffffffff021916908373ffffffffffffffffffffffffffffffffffffffff160217905550611717806100746000396000f30060806040526004361061006d576000357c0100000000000000000000000000000000000000000000000000000000900463ffffffff16806327dc297e1461007257806338bbfa50146100e9578063718c7d44146101a657806374030531146101fd57806384350e1d14610271575b600080fd5b34801561007e57600080fd5b506100e76004803603810190808035600019169060200190929190803590602001908201803590602001908080601f0160208091040260200160405190810160405280939291908181526020018383808284378201915050505050509192919290505050610288565b005b3480156100f557600080fd5b506101a46004803603810190808035600019169060200190929190803590602001908201803590602001908080601f0160208091040260200160405190810160405280939291908181526020018383808284378201915050505050509192919290803590602001908201803590602001908080601f016020809104026020016040519081016040528093929190818152602001838380828437820191505050505050919291929050505061031a565b005b3480156101b257600080fd5b506101bb61031f565b604051808273ffffffffffffffffffffffffffffffffffffffff1673ffffffffffffffffffffffffffffffffffffffff16815260200191505060405180910390f35b610257600480360381019080803590602001908201803590602001908080601f0160208091040260200160405190810160405280939291908181526020018383808284378201915050505050509192919290505050610345565b604051808215151515815260200191505060405180910390f35b34801561027d57600080fd5b50610286610486565b005b7fda2ceecbf0a68301143a220d1af7a2f12223ee02b6b00bbff5174e8069f6caa260405180806020018281038252602c8152602001807f476f74206f7261636c697a6520717565727920616e642063616c6c6261636b2081526020017f697320657865637574656421000000000000000000000000000000000000000081525060400191505060405180910390a15050565b505050565b600560009054906101000a900473ffffffffffffffffffffffffffffffffffffffff1681565b60008067016345785d8a0000341480151561035f57600080fd5b338260000160006101000a81548173ffffffffffffffffffffffffffffffffffffffff021916908373ffffffffffffffffffffffffffffffffffffffff160217905550838260010190805190602001906103ba9291906115bf565b50600782908060018154018082558091505090600182039060005260206000209060020201600090919290919091506000820160009054906101000a900473ffffffffffffffffffffffffffffffffffffffff168160000160006101000a81548173ffffffffffffffffffffffffffffffffffffffff021916908373ffffffffffffffffffffffffffffffffffffffff1602179055506001820181600101908054600181600116156101000203166002900461047792919061163f565b50505050600192505050919050565b3073ffffffffffffffffffffffffffffffffffffffff16316104dc6040805190810160405280600381526020017f55524c00000000000000000000000000000000000000000000000000000000008152506106c8565b111561059b577f46cb989ef9cef13e930e3b7f286225a086e716a90d63e0b7da85d310a9db0c9a60405180806020018281038252604b8152602001807f4f7261636c697a6520717565727920776173204e4f542073656e742c20706c6581526020017f6173652061646420736f6d652045544820746f20636f76657220666f7220746881526020017f652071756572792066656500000000000000000000000000000000000000000081525060600191505060405180910390a16106c6565b7f46cb989ef9cef13e930e3b7f286225a086e716a90d63e0b7da85d310a9db0c9a6040518080602001828103825260358152602001807f4f7261636c697a65207175657279207761732073656e742c207374616e64696e81526020017f6720627920666f722074686520616e737765722e2e000000000000000000000081525060400191505060405180910390a16106c46040805190810160405280600381526020017f55524c0000000000000000000000000000000000000000000000000000000000815250606060405190810160405280602981526020017f6a736f6e28687474703a2f2f3132372e302e302e313a353030302f6c75636b7981526020017f5f6e756d62657273290000000000000000000000000000000000000000000000815250610a98565b505b565b6000806000809054906101000a900473ffffffffffffffffffffffffffffffffffffffff1673ffffffffffffffffffffffffffffffffffffffff161480610738575060006107366000809054906101000a900473ffffffffffffffffffffffffffffffffffffffff1661103a565b145b15610749576107476000611045565b505b6000809054906101000a900473ffffffffffffffffffffffffffffffffffffffff1673ffffffffffffffffffffffffffffffffffffffff166338cc48316040518163ffffffff167c0100000000000000000000000000000000000000000000000000000000028152600401602060405180830381600087803b1580156107ce57600080fd5b505af11580156107e2573d6000803e3d6000fd5b505050506040513d60208110156107f857600080fd5b810190808051906020019092919050505073ffffffffffffffffffffffffffffffffffffffff16600160009054906101000a900473ffffffffffffffffffffffffffffffffffffffff1673ffffffffffffffffffffffffffffffffffffffff16141515610960576000809054906101000a900473ffffffffffffffffffffffffffffffffffffffff1673ffffffffffffffffffffffffffffffffffffffff166338cc48316040518163ffffffff167c0100000000000000000000000000000000000000000000000000000000028152600401602060405180830381600087803b1580156108e457600080fd5b505af11580156108f8573d6000803e3d6000fd5b505050506040513d602081101561090e57600080fd5b8101908080519060200190929190505050600160006101000a81548173ffffffffffffffffffffffffffffffffffffffff021916908373ffffffffffffffffffffffffffffffffffffffff1602179055505b600160009054906101000a900473ffffffffffffffffffffffffffffffffffffffff1673ffffffffffffffffffffffffffffffffffffffff1663524f3889836040518263ffffffff167c01000000000000000000000000000000000000000000000000000000000281526004018080602001828103825283818151815260200191508051906020019080838360005b83811015610a0a5780820151818401526020810190506109ef565b50505050905090810190601f168015610a375780820380516001836020036101000a031916815260200191505b5092505050602060405180830381600087803b158015610a5657600080fd5b505af1158015610a6a573d6000803e3d6000fd5b505050506040513d6020811015610a8057600080fd5b81019080805190602001909291905050509050919050565b60008060008060009054906101000a900473ffffffffffffffffffffffffffffffffffffffff1673ffffffffffffffffffffffffffffffffffffffff161480610b0a57506000610b086000809054906101000a900473ffffffffffffffffffffffffffffffffffffffff1661103a565b145b15610b1b57610b196000611045565b505b6000809054906101000a900473ffffffffffffffffffffffffffffffffffffffff1673ffffffffffffffffffffffffffffffffffffffff166338cc48316040518163ffffffff167c0100000000000000000000000000000000000000000000000000000000028152600401602060405180830381600087803b158015610ba057600080fd5b505af1158015610bb4573d6000803e3d6000fd5b505050506040513d6020811015610bca57600080fd5b810190808051906020019092919050505073ffffffffffffffffffffffffffffffffffffffff16600160009054906101000a900473ffffffffffffffffffffffffffffffffffffffff1673ffffffffffffffffffffffffffffffffffffffff16141515610d32576000809054906101000a900473ffffffffffffffffffffffffffffffffffffffff1673ffffffffffffffffffffffffffffffffffffffff166338cc48316040518163ffffffff167c0100000000000000000000000000000000000000000000000000000000028152600401602060405180830381600087803b158015610cb657600080fd5b505af1158015610cca573d6000803e3d6000fd5b505050506040513d6020811015610ce057600080fd5b8101908080519060200190929190505050600160006101000a81548173ffffffffffffffffffffffffffffffffffffffff021916908373ffffffffffffffffffffffffffffffffffffffff1602179055505b600160009054906101000a900473ffffffffffffffffffffffffffffffffffffffff1673ffffffffffffffffffffffffffffffffffffffff1663524f3889856040518263ffffffff167c01000000000000000000000000000000000000000000000000000000000281526004018080602001828103825283818151815260200191508051906020019080838360005b83811015610ddc578082015181840152602081019050610dc1565b50505050905090810190601f168015610e095780820380516001836020036101000a031916815260200191505b5092505050602060405180830381600087803b158015610e2857600080fd5b505af1158015610e3c573d6000803e3d6000fd5b505050506040513d6020811015610e5257600080fd5b8101908080519060200190929190505050905062030d403a02670de0b6b3a764000001811115610e885760006001029150611033565b600160009054906101000a900473ffffffffffffffffffffffffffffffffffffffff1673ffffffffffffffffffffffffffffffffffffffff1663adf59f9982600087876040518563ffffffff167c0100000000000000000000000000000000000000000000000000000000028152600401808481526020018060200180602001838103835285818151815260200191508051906020019080838360005b83811015610f40578082015181840152602081019050610f25565b50505050905090810190601f168015610f6d5780820380516001836020036101000a031916815260200191505b50838103825284818151815260200191508051906020019080838360005b83811015610fa6578082015181840152602081019050610f8b565b50505050905090810190601f168015610fd35780820380516001836020036101000a031916815260200191505b50955050505050506020604051808303818588803b158015610ff457600080fd5b505af1158015611008573d6000803e3d6000fd5b50505050506040513d602081101561101f57600080fd5b810190808051906020019092919050505091505b5092915050565b6000813b9050919050565b600061104f611056565b9050919050565b600080611076731d3b2638a7cc9f2cb3d298a3da7a90b67e5506ed61103a565b111561111757731d3b2638a7cc9f2cb3d298a3da7a90b67e5506ed6000806101000a81548173ffffffffffffffffffffffffffffffffffffffff021916908373ffffffffffffffffffffffffffffffffffffffff16021790555061110e6040805190810160405280600b81526020017f6574685f6d61696e6e65740000000000000000000000000000000000000000008152506115a5565b600190506115a2565b600061113673c03a2615d5efaf5f49f60b7bb6583eaec212fdf161103a565b11156111d75773c03a2615d5efaf5f49f60b7bb6583eaec212fdf16000806101000a81548173ffffffffffffffffffffffffffffffffffffffff021916908373ffffffffffffffffffffffffffffffffffffffff1602179055506111ce6040805190810160405280600c81526020017f6574685f726f707374656e3300000000000000000000000000000000000000008152506115a5565b600190506115a2565b60006111f673b7a07bcf2ba2f2703b24c0691b5278999c59ac7e61103a565b11156112975773b7a07bcf2ba2f2703b24c0691b5278999c59ac7e6000806101000a81548173ffffffffffffffffffffffffffffffffffffffff021916908373ffffffffffffffffffffffffffffffffffffffff16021790555061128e6040805190810160405280600981526020017f6574685f6b6f76616e00000000000000000000000000000000000000000000008152506115a5565b600190506115a2565b60006112b673146500cfd35b22e4a392fe0adc06de1a1368ed4861103a565b11156113575773146500cfd35b22e4a392fe0adc06de1a1368ed486000806101000a81548173ffffffffffffffffffffffffffffffffffffffff021916908373ffffffffffffffffffffffffffffffffffffffff16021790555061134e6040805190810160405280600b81526020017f6574685f72696e6b6562790000000000000000000000000000000000000000008152506115a5565b600190506115a2565b600061137673a2998efd205fb9d4b4963afb70778d6354ad3a4161103a565b11156114175773a2998efd205fb9d4b4963afb70778d6354ad3a416000806101000a81548173ffffffffffffffffffffffffffffffffffffffff021916908373ffffffffffffffffffffffffffffffffffffffff16021790555061140e6040805190810160405280600a81526020017f6574685f676f65726c69000000000000000000000000000000000000000000008152506115a5565b600190506115a2565b6000611436736f485c8bf6fc43ea212e93bbf8ce046c7f1cb47561103a565b111561149957736f485c8bf6fc43ea212e93bbf8ce046c7f1cb4756000806101000a81548173ffffffffffffffffffffffffffffffffffffffff021916908373ffffffffffffffffffffffffffffffffffffffff160217905550600190506115a2565b60006114b87320e12a1f859b3feae5fb2a0a32c18f5a65555bbf61103a565b111561151b577320e12a1f859b3feae5fb2a0a32c18f5a65555bbf6000806101000a81548173ffffffffffffffffffffffffffffffffffffffff021916908373ffffffffffffffffffffffffffffffffffffffff160217905550600190506115a2565b600061153a7351efaf4c8b3c9afbd5ab9f4bbc82784ab6ef8faa61103a565b111561159d577351efaf4c8b3c9afbd5ab9f4bbc82784ab6ef8faa6000806101000a81548173ffffffffffffffffffffffffffffffffffffffff021916908373ffffffffffffffffffffffffffffffffffffffff160217905550600190506115a2565b600090505b90565b80600290805190602001906115bb9291906115bf565b5050565b828054600181600116156101000203166002900490600052602060002090601f016020900481019282601f1061160057805160ff191683800117855561162e565b8280016001018555821561162e579182015b8281111561162d578251825591602001919060010190611612565b5b50905061163b91906116c6565b5090565b828054600181600116156101000203166002900490600052602060002090601f016020900481019282601f1061167857805485556116b5565b828001600101855582156116b557600052602060002091601f016020900482015b828111156116b4578254825591600101919060010190611699565b5b5090506116c291906116c6565b5090565b6116e891905b808211156116e45760008160009055506001016116cc565b5090565b905600a165627a7a72305820cabbaeecd17cd0cbc8ce238343442845704c457c837dd7773a13a151467f06040029",
  "source": "pragma solidity ^0.4.22;\nimport \"./usingOraclize.sol\";\n\ncontract Lottery is usingOraclize {\n    address public better;\n    string winningNumbers;\n\n    struct Better {\n        address betterAddress;\n        string bettedNumbers;\n    }\n\n    Better[] betters;\n    address[] winners;\n\n    event newOraclizeQuery(string description);\n    event gotOraclizeQuery(string description);\n\n    modifier condition(bool _condition) {\n        require(_condition);\n        _;\n    }\n\n    function Lottery() {\n        OAR = OraclizeAddrResolverI(0x6f485C8BF6fc43eA212E93BBF8ce046C7f1cb475);\n    }\n\n    function bet(string _betNumbers)\n        public\n        condition(msg.value == (0.1 ether))\n        payable\n        returns(bool succeeded)\n    {\n        Better storage _currentBetter;\n        _currentBetter.betterAddress = msg.sender;\n        _currentBetter.bettedNumbers = _betNumbers;\n        betters.push(_currentBetter);\n        return true;\n    }\n\n    function getWinningNumbers()\n        public\n    {\n        if (oraclize_getPrice(\"URL\") > this.balance) {\n            emit newOraclizeQuery(\"Oraclize query was NOT sent, please add some ETH to cover for the query fee\");\n        } else {\n            emit newOraclizeQuery(\"Oraclize query was sent, standing by for the answer..\");\n            oraclize_query(\"URL\", \"json(http://127.0.0.1:5000/lucky_numbers)\");\n        }\n    }\n\n    function __callback(bytes32 myid, string result)\n    {\n        emit gotOraclizeQuery(\"Got oraclize query and callback is executed!\");\n    }\n\n}",
  "sourcePath": "/home/michal/git/lottery-smart-contract/LotteryContract/contracts/Lottery.sol",
  "compiler": {
    "name": "solc",
    "version": "0.4.25+commit.59dbf8f1.Emscripten.clang"
  },
  "schemaVersion": "3.0.13",
  "updatedAt": "2019-09-04T14:21:21.281Z",
  "devdoc": {
    "methods": {}
  },
  "userdoc": {
    "methods": {}
  }
}