{
  "contractName": "Lottery",
  "abi": [
    {
      "constant": true,
      "inputs": [],
      "name": "creator",
      "outputs": [
        {
          "name": "",
          "type": "address"
        }
      ],
      "payable": false,
      "stateMutability": "view",
      "type": "function"
    },
    {
      "constant": true,
      "inputs": [],
      "name": "winningNumbers",
      "outputs": [
        {
          "name": "",
          "type": "string"
        }
      ],
      "payable": false,
      "stateMutability": "view",
      "type": "function"
    },
    {
      "constant": true,
      "inputs": [],
      "name": "better",
      "outputs": [
        {
          "name": "",
          "type": "address"
        }
      ],
      "payable": false,
      "stateMutability": "view",
      "type": "function"
    },
    {
      "inputs": [],
      "payable": true,
      "stateMutability": "payable",
      "type": "constructor"
    },
    {
      "constant": false,
      "inputs": [
        {
          "name": "_betNumbers",
          "type": "string"
        }
      ],
      "name": "bet",
      "outputs": [
        {
          "name": "",
          "type": "bool"
        }
      ],
      "payable": true,
      "stateMutability": "payable",
      "type": "function"
    },
    {
      "constant": false,
      "inputs": [],
      "name": "drawWinningNumbers",
      "outputs": [],
      "payable": false,
      "stateMutability": "nonpayable",
      "type": "function"
    },
    {
      "constant": false,
      "inputs": [],
      "name": "collectWinners",
      "outputs": [],
      "payable": false,
      "stateMutability": "nonpayable",
      "type": "function"
    },
    {
      "constant": false,
      "inputs": [],
      "name": "payout",
      "outputs": [],
      "payable": true,
      "stateMutability": "payable",
      "type": "function"
    },
    {
      "constant": true,
      "inputs": [],
      "name": "getWinningNumbers",
      "outputs": [
        {
          "name": "",
          "type": "string"
        }
      ],
      "payable": false,
      "stateMutability": "view",
      "type": "function"
    },
    {
      "constant": true,
      "inputs": [],
      "name": "getWinners",
      "outputs": [
        {
          "name": "",
          "type": "address[]"
        }
      ],
      "payable": false,
      "stateMutability": "view",
      "type": "function"
    }
  ],
  "bytecode": "0x6080604052336000806101000a81548173ffffffffffffffffffffffffffffffffffffffff021916908373ffffffffffffffffffffffffffffffffffffffff1602179055506001600460006101000a81548160ff0219169083600281111561006357fe5b0217905550610db2806100776000396000f300608060405260043610610099576000357c0100000000000000000000000000000000000000000000000000000000900463ffffffff16806302d05d3f1461009e57806321e0f228146100f5578063608620aa1461018557806363bd1d4a1461019c578063718c7d44146101a657806374030531146101fd57806384350e1d146102715780639dfa5b4d14610301578063df15c37e14610318575b600080fd5b3480156100aa57600080fd5b506100b3610384565b604051808273ffffffffffffffffffffffffffffffffffffffff1673ffffffffffffffffffffffffffffffffffffffff16815260200191505060405180910390f35b34801561010157600080fd5b5061010a6103a9565b6040518080602001828103825283818151815260200191508051906020019080838360005b8381101561014a57808201518184015260208101905061012f565b50505050905090810190601f1680156101775780820380516001836020036101000a031916815260200191505b509250505060405180910390f35b34801561019157600080fd5b5061019a610447565b005b6101a46104f0565b005b3480156101b257600080fd5b506101bb610609565b604051808273ffffffffffffffffffffffffffffffffffffffff1673ffffffffffffffffffffffffffffffffffffffff16815260200191505060405180910390f35b610257600480360381019080803590602001908201803590602001908080601f016020809104026020016040519081016040528093929190818152602001838380828437820191505050505050919291929050505061062f565b604051808215151515815260200191505060405180910390f35b34801561027d57600080fd5b5061028661079f565b6040518080602001828103825283818151815260200191508051906020019080838360005b838110156102c65780820151818401526020810190506102ab565b50505050905090810190601f1680156102f35780820380516001836020036101000a031916815260200191505b509250505060405180910390f35b34801561030d57600080fd5b50610316610841565b005b34801561032457600080fd5b5061032d610a94565b6040518080602001828103825283818151815260200191508051906020019060200280838360005b83811015610370578082015181840152602081019050610355565b505050509050019250505060405180910390f35b6000809054906101000a900473ffffffffffffffffffffffffffffffffffffffff1681565b60028054600181600116156101000203166002900480601f01602080910402602001604051908101604052809291908181526020018280546001816001161561010002031660029004801561043f5780601f106104145761010080835404028352916020019161043f565b820191906000526020600020905b81548152906001019060200180831161042257829003601f168201915b505050505081565b6000809054906101000a900473ffffffffffffffffffffffffffffffffffffffff1673ffffffffffffffffffffffffffffffffffffffff163373ffffffffffffffffffffffffffffffffffffffff161415156104a257600080fd5b6040805190810160405280600d81526020017f312c31312c31392c32342c343300000000000000000000000000000000000000815250600290805190602001906104ed929190610c39565b50565b6000806000809054906101000a900473ffffffffffffffffffffffffffffffffffffffff1673ffffffffffffffffffffffffffffffffffffffff163373ffffffffffffffffffffffffffffffffffffffff1614151561054e57600080fd5b610556610b22565b9150600090505b6006805490508110156105f75760068181548110151561057957fe5b9060005260206000200160009054906101000a900473ffffffffffffffffffffffffffffffffffffffff1673ffffffffffffffffffffffffffffffffffffffff166108fc839081150290604051600060405180830381858888f193505050501580156105e9573d6000803e3d6000fd5b50808060010191505061055d565b600660006106059190610cb9565b5050565b600160009054906101000a900473ffffffffffffffffffffffffffffffffffffffff1681565b60008067016345785d8a0000341480151561064957600080fd5b338260000160006101000a81548173ffffffffffffffffffffffffffffffffffffffff021916908373ffffffffffffffffffffffffffffffffffffffff160217905550838260010190805190602001906106a4929190610c39565b50600582908060018154018082558091505090600182039060005260206000209060020201600090919290919091506000820160009054906101000a900473ffffffffffffffffffffffffffffffffffffffff168160000160006101000a81548173ffffffffffffffffffffffffffffffffffffffff021916908373ffffffffffffffffffffffffffffffffffffffff16021790555060018201816001019080546001816001161561010002031660029004610761929190610cda565b5050505034600354016003819055506001600460006101000a81548160ff0219169083600281111561078f57fe5b0217905550600192505050919050565b606060028054600181600116156101000203166002900480601f0160208091040260200160405190810160405280929190818152602001828054600181600116156101000203166002900480156108375780601f1061080c57610100808354040283529160200191610837565b820191906000526020600020905b81548152906001019060200180831161081a57829003601f168201915b5050505050905090565b60008060009054906101000a900473ffffffffffffffffffffffffffffffffffffffff1673ffffffffffffffffffffffffffffffffffffffff163373ffffffffffffffffffffffffffffffffffffffff1614151561089e57600080fd5b600090505b600580549050811015610a91576109d86005828154811015156108c257fe5b90600052602060002090600202016040805190810160405290816000820160009054906101000a900473ffffffffffffffffffffffffffffffffffffffff1673ffffffffffffffffffffffffffffffffffffffff1673ffffffffffffffffffffffffffffffffffffffff168152602001600182018054600181600116156101000203166002900480601f0160208091040260200160405190810160405280929190818152602001828054600181600116156101000203166002900480156109ca5780601f1061099f576101008083540402835291602001916109ca565b820191906000526020600020905b8154815290600101906020018083116109ad57829003601f168201915b505050505081525050610b50565b15610a845760066005828154811015156109ee57fe5b906000526020600020906002020160000160009054906101000a900473ffffffffffffffffffffffffffffffffffffffff1690806001815401808255809150509060018203906000526020600020016000909192909190916101000a81548173ffffffffffffffffffffffffffffffffffffffff021916908373ffffffffffffffffffffffffffffffffffffffff160217905550505b80806001019150506108a3565b50565b60606006805480602002602001604051908101604052809291908181526020018280548015610b1857602002820191906000526020600020905b8160009054906101000a900473ffffffffffffffffffffffffffffffffffffffff1673ffffffffffffffffffffffffffffffffffffffff1681526020019060010190808311610ace575b5050505050905090565b600080600a600960035402811515610b3657fe5b04905060068054905081811515610b4957fe5b0491505090565b600060608260200151905060026040518082805460018160011615610100020316600290048015610bb85780601f10610b96576101008083540402835291820191610bb8565b820191906000526020600020905b815481529060010190602001808311610ba4575b5050915050604051809103902060001916816040518082805190602001908083835b602083101515610bff5780518252602082019150602081019050602083039250610bda565b6001836020036101000a03801982511681845116808217855250505050505090500191505060405180910390206000191614915050919050565b828054600181600116156101000203166002900490600052602060002090601f016020900481019282601f10610c7a57805160ff1916838001178555610ca8565b82800160010185558215610ca8579182015b82811115610ca7578251825591602001919060010190610c8c565b5b509050610cb59190610d61565b5090565b5080546000825590600052602060002090810190610cd79190610d61565b50565b828054600181600116156101000203166002900490600052602060002090601f016020900481019282601f10610d135780548555610d50565b82800160010185558215610d5057600052602060002091601f016020900482015b82811115610d4f578254825591600101919060010190610d34565b5b509050610d5d9190610d61565b5090565b610d8391905b80821115610d7f576000816000905550600101610d67565b5090565b905600a165627a7a7230582015389344553ca13bb6347c1243de42f7316a169329b2e32c090ade16de473ffb0029",
  "source": "pragma solidity ^0.4.24;\n\ncontract Lottery {\n    address public creator;\n    address public better;\n    string public winningNumbers;\n    uint256 bank;\n\n    struct Better {\n        address betterAddress;\n        string bettedNumbers;\n    }\n\n    enum State { Initialized, Ongoing, Finished }\n    State state;\n\n    Better[] betters;\n    address[] winners;\n\n    function Lottery()\n        public\n        payable\n    {\n        creator = msg.sender;\n        state = State.Ongoing;\n    }\n\n    modifier condition(bool _condition)\n    {\n        require(_condition);\n        _;\n    }\n\n    modifier isCreator()\n    {\n        require(msg.sender == creator);\n        _;\n    }\n\n    modifier isNotCreator()\n    {\n        require(msg.sender != creator);\n        _;\n    }\n\n    modifier isInState(State _state)\n    {\n        require(state == _state);\n        _;\n    }\n\n    function bet(string _betNumbers)\n        public\n        condition(msg.value == (0.1 ether))\n        payable\n        returns(bool)\n    {\n        Better storage _currentBetter;\n        _currentBetter.betterAddress = msg.sender;\n        _currentBetter.bettedNumbers = _betNumbers;\n        betters.push(_currentBetter);\n        bank = bank + msg.value;\n        state = State.Ongoing;\n        return true;\n    }\n\n    function drawWinningNumbers()\n        public\n        isCreator\n    {\n        winningNumbers = \"1,11,19,24,43\"; // numbers need to be sorted\n    }\n\n    function isWinner(Better better)\n        internal\n        returns (bool)\n    {\n        string memory bettedNumbers = better.bettedNumbers;\n        return keccak256(bettedNumbers) == keccak256(winningNumbers);\n    }\n\n    function collectWinners()\n        public\n        isCreator\n    {\n        for (uint i=0; i<betters.length; i++)\n        {\n            if (isWinner(betters[uint(i)]))\n            {\n                winners.push(betters[uint(i)].betterAddress);\n            }\n        }\n    }\n\n    function payout()\n        public\n        payable\n        isCreator\n    {\n        uint256 prize = calculatePrize();\n        for (uint i=0; i<winners.length; i++)\n        {\n            winners[uint(i)].transfer(prize);\n        }\n        delete winners;\n    }\n\n    function calculatePrize()\n        internal\n        returns(uint256)\n    {\n        uint256 prizePool = bank * uint256(9) / uint256(10);\n        return prizePool / uint256(winners.length);\n    }\n\n    // function isSenderAWinner()\n    //     public\n    //     returns (bool)\n    // {\n\n    // }\n\n    function getWinningNumbers()\n        public\n        view\n        returns(string memory)\n    {\n        return winningNumbers;\n    }\n\n    function getWinners()\n        public\n        view\n        returns(address[] memory)\n    {\n        return winners;\n    }\n\n}",
  "sourcePath": "/home/michal/Projects/lottery-smart-contract/LotteryContract/contracts/Lottery.sol",
  "compiler": {
    "name": "solc",
    "version": "0.4.25+commit.59dbf8f1.Emscripten.clang"
  },
  "schemaVersion": "3.0.13",
  "updatedAt": "2019-09-07T13:51:43.325Z",
  "devdoc": {
    "methods": {}
  },
  "userdoc": {
    "methods": {}
  }
}