{
  "contractName": "Lottery",
  "abi": [
    {
      "constant": true,
      "inputs": [],
      "name": "better",
      "outputs": [
        {
          "name": "",
          "type": "address"
        }
      ],
      "payable": false,
      "stateMutability": "view",
      "type": "function"
    },
    {
      "anonymous": false,
      "inputs": [
        {
          "indexed": false,
          "name": "description",
          "type": "string"
        }
      ],
      "name": "newOraclizeQuery",
      "type": "event"
    },
    {
      "anonymous": false,
      "inputs": [
        {
          "indexed": false,
          "name": "description",
          "type": "string"
        }
      ],
      "name": "gotOraclizeQuery",
      "type": "event"
    },
    {
      "constant": false,
      "inputs": [
        {
          "name": "_betNumbers",
          "type": "string"
        }
      ],
      "name": "bet",
      "outputs": [
        {
          "name": "succeeded",
          "type": "bool"
        }
      ],
      "payable": true,
      "stateMutability": "payable",
      "type": "function"
    },
    {
      "constant": false,
      "inputs": [],
      "name": "getWinningNumbers",
      "outputs": [
        {
          "name": "winningNumbers",
          "type": "string"
        }
      ],
      "payable": false,
      "stateMutability": "nonpayable",
      "type": "function"
    }
  ],
  "bytecode": "0x608060405234801561001057600080fd5b506104b5806100206000396000f300608060405260043610610057576000357c0100000000000000000000000000000000000000000000000000000000900463ffffffff168063718c7d441461005c57806374030531146100b357806384350e1d14610127575b600080fd5b34801561006857600080fd5b506100716101b7565b604051808273ffffffffffffffffffffffffffffffffffffffff1673ffffffffffffffffffffffffffffffffffffffff16815260200191505060405180910390f35b61010d600480360381019080803590602001908201803590602001908080601f01602080910402602001604051908101604052809392919081815260200183838082843782019150505050505091929192905050506101dc565b604051808215151515815260200191505060405180910390f35b34801561013357600080fd5b5061013c61031d565b6040518080602001828103825283818151815260200191508051906020019080838360005b8381101561017c578082015181840152602081019050610161565b50505050905090810190601f1680156101a95780820380516001836020036101000a031916815260200191505b509250505060405180910390f35b6000809054906101000a900473ffffffffffffffffffffffffffffffffffffffff1681565b60008067016345785d8a000034148015156101f657600080fd5b338260000160006101000a81548173ffffffffffffffffffffffffffffffffffffffff021916908373ffffffffffffffffffffffffffffffffffffffff1602179055508382600101908051906020019061025192919061035d565b50600282908060018154018082558091505090600182039060005260206000209060020201600090919290919091506000820160009054906101000a900473ffffffffffffffffffffffffffffffffffffffff168160000160006101000a81548173ffffffffffffffffffffffffffffffffffffffff021916908373ffffffffffffffffffffffffffffffffffffffff1602179055506001820181600101908054600181600116156101000203166002900461030e9291906103dd565b50505050600192505050919050565b60606040805190810160405280600d81526020017f312c32342c34332c31312c313900000000000000000000000000000000000000815250905080905090565b828054600181600116156101000203166002900490600052602060002090601f016020900481019282601f1061039e57805160ff19168380011785556103cc565b828001600101855582156103cc579182015b828111156103cb5782518255916020019190600101906103b0565b5b5090506103d99190610464565b5090565b828054600181600116156101000203166002900490600052602060002090601f016020900481019282601f106104165780548555610453565b8280016001018555821561045357600052602060002091601f016020900482015b82811115610452578254825591600101919060010190610437565b5b5090506104609190610464565b5090565b61048691905b8082111561048257600081600090555060010161046a565b5090565b905600a165627a7a72305820dc333c5eb3e434d7ed71ef6b99f9b689a784f19413f4bd0ef2bdb660637172340029",
  "source": "pragma solidity ^0.4.22;\n\ncontract Lottery {\n    address public better;\n    string winningNumbers;\n\n    struct Better {\n        address betterAddress;\n        string bettedNumbers;\n    }\n\n    Better[] betters;\n    address[] winners;\n\n    event newOraclizeQuery(string description);\n    event gotOraclizeQuery(string description);\n\n    modifier condition(bool _condition) {\n        require(_condition);\n        _;\n    }\n\n    function bet(string _betNumbers)\n        public\n        condition(msg.value == (0.1 ether))\n        payable\n        returns(bool succeeded)\n    {\n        Better storage _currentBetter;\n        _currentBetter.betterAddress = msg.sender;\n        _currentBetter.bettedNumbers = _betNumbers;\n        betters.push(_currentBetter);\n        return true;\n    }\n\n    function getWinningNumbers()\n        public\n        returns(string winningNumbers)\n    {\n        winningNumbers = \"1,24,43,11,19\";\n        return winningNumbers;\n    }\n\n}",
  "sourcePath": "/home/michal/git/lottery-smart-contract/LotteryContract/contracts/Lottery.sol",
  "compiler": {
    "name": "solc",
    "version": "0.4.25+commit.59dbf8f1.Emscripten.clang"
  },
  "schemaVersion": "3.0.13",
  "updatedAt": "2019-09-04T14:42:37.920Z",
  "devdoc": {
    "methods": {}
  },
  "userdoc": {
    "methods": {}
  }
}